{
  "contractName": "MyTokenSale",
  "abi": [
    {
      "inputs": [
        {
          "internalType": "uint256",
          "name": "rate",
          "type": "uint256"
        },
        {
          "internalType": "address payable",
          "name": "wallet",
          "type": "address"
        },
        {
          "internalType": "contract IERC20",
          "name": "token",
          "type": "address"
        }
      ],
      "stateMutability": "nonpayable",
      "type": "constructor"
    },
    {
      "anonymous": false,
      "inputs": [
        {
          "indexed": true,
          "internalType": "address",
          "name": "purchaser",
          "type": "address"
        },
        {
          "indexed": true,
          "internalType": "address",
          "name": "beneficiary",
          "type": "address"
        },
        {
          "indexed": false,
          "internalType": "uint256",
          "name": "value",
          "type": "uint256"
        },
        {
          "indexed": false,
          "internalType": "uint256",
          "name": "amount",
          "type": "uint256"
        }
      ],
      "name": "TokensPurchased",
      "type": "event"
    },
    {
      "inputs": [
        {
          "internalType": "address",
          "name": "beneficiary",
          "type": "address"
        }
      ],
      "name": "buyTokens",
      "outputs": [],
      "stateMutability": "payable",
      "type": "function",
      "payable": true
    },
    {
      "inputs": [],
      "name": "rateA",
      "outputs": [
        {
          "internalType": "uint256",
          "name": "",
          "type": "uint256"
        }
      ],
      "stateMutability": "view",
      "type": "function",
      "constant": true
    },
    {
      "inputs": [],
      "name": "tokenA",
      "outputs": [
        {
          "internalType": "contract IERC20",
          "name": "",
          "type": "address"
        }
      ],
      "stateMutability": "view",
      "type": "function",
      "constant": true
    },
    {
      "inputs": [],
      "name": "walletA",
      "outputs": [
        {
          "internalType": "address",
          "name": "",
          "type": "address"
        }
      ],
      "stateMutability": "view",
      "type": "function",
      "constant": true
    },
    {
      "inputs": [],
      "name": "weiRaisedA",
      "outputs": [
        {
          "internalType": "uint256",
          "name": "",
          "type": "uint256"
        }
      ],
      "stateMutability": "view",
      "type": "function",
      "constant": true
    },
    {
      "stateMutability": "payable",
      "type": "receive",
      "payable": true
    }
  ],
  "bytecode": "0x60806040523480156200001157600080fd5b50604051620013f6380380620013f6833981810160405281019062000037919062000301565b82828260016000819055506000831162000088576040517f08c379a00000000000000000000000000000000000000000000000000000000081526004016200007f90620003be565b60405180910390fd5b600073ffffffffffffffffffffffffffffffffffffffff168273ffffffffffffffffffffffffffffffffffffffff161415620000fb576040517f08c379a0000000000000000000000000000000000000000000000000000000008152600401620000f29062000456565b60405180910390fd5b600073ffffffffffffffffffffffffffffffffffffffff168173ffffffffffffffffffffffffffffffffffffffff1614156200016e576040517f08c379a00000000000000000000000000000000000000000000000000000000081526004016200016590620004ee565b60405180910390fd5b8260038190555081600260006101000a81548173ffffffffffffffffffffffffffffffffffffffff021916908373ffffffffffffffffffffffffffffffffffffffff16021790555080600160006101000a81548173ffffffffffffffffffffffffffffffffffffffff021916908373ffffffffffffffffffffffffffffffffffffffff16021790555050505050505062000510565b600080fd5b6000819050919050565b6200021d8162000208565b81146200022957600080fd5b50565b6000815190506200023d8162000212565b92915050565b600073ffffffffffffffffffffffffffffffffffffffff82169050919050565b6000620002708262000243565b9050919050565b620002828162000263565b81146200028e57600080fd5b50565b600081519050620002a28162000277565b92915050565b6000620002b58262000243565b9050919050565b6000620002c982620002a8565b9050919050565b620002db81620002bc565b8114620002e757600080fd5b50565b600081519050620002fb81620002d0565b92915050565b6000806000606084860312156200031d576200031c62000203565b5b60006200032d868287016200022c565b9350506020620003408682870162000291565b92505060406200035386828701620002ea565b9150509250925092565b600082825260208201905092915050565b7f43726f776473616c653a20726174652069732030000000000000000000000000600082015250565b6000620003a66014836200035d565b9150620003b3826200036e565b602082019050919050565b60006020820190508181036000830152620003d98162000397565b9050919050565b7f43726f776473616c653a2077616c6c657420697320746865207a65726f20616460008201527f6472657373000000000000000000000000000000000000000000000000000000602082015250565b60006200043e6025836200035d565b91506200044b82620003e0565b604082019050919050565b6000602082019050818103600083015262000471816200042f565b9050919050565b7f43726f776473616c653a20746f6b656e20697320746865207a65726f2061646460008201527f7265737300000000000000000000000000000000000000000000000000000000602082015250565b6000620004d66024836200035d565b9150620004e38262000478565b604082019050919050565b600060208201905081810360008301526200050981620004c7565b9050919050565b610ed680620005206000396000f3fe60806040526004361061004e5760003560e01c80630fc63d101461006a5780632b24aa6e1461009557806336a4b31e146100c0578063b77e7da0146100eb578063ec8ac4d81461011657610065565b366100655761006361005e610132565b61013a565b005b600080fd5b34801561007657600080fd5b5061007f610260565b60405161008c919061080e565b60405180910390f35b3480156100a157600080fd5b506100aa61028a565b6040516100b79190610842565b60405180910390f35b3480156100cc57600080fd5b506100d5610294565b6040516100e29190610842565b60405180910390f35b3480156100f757600080fd5b5061010061029e565b60405161010d919061087e565b60405180910390f35b610130600480360381019061012b91906108ca565b61013a565b005b600033905090565b60026000541415610180576040517f08c379a000000000000000000000000000000000000000000000000000000000815260040161017790610954565b60405180910390fd5b6002600081905550600034905061019782826102c8565b60006101a282610380565b90506101b98260045461039e90919063ffffffff16565b6004819055506101c983826103b4565b8273ffffffffffffffffffffffffffffffffffffffff166101e8610132565b73ffffffffffffffffffffffffffffffffffffffff167f6faf93231a456e552dbc9961f58d9713ee4f2e69d15f1975b050ef0911053a7b848460405161022f929190610974565b60405180910390a361024183836103c2565b6102496103c6565b6102538383610431565b5050600160008190555050565b6000600160009054906101000a900473ffffffffffffffffffffffffffffffffffffffff16905090565b6000600354905090565b6000600454905090565b6000600260009054906101000a900473ffffffffffffffffffffffffffffffffffffffff16905090565b600073ffffffffffffffffffffffffffffffffffffffff168273ffffffffffffffffffffffffffffffffffffffff161415610338576040517f08c379a000000000000000000000000000000000000000000000000000000000815260040161032f90610a0f565b60405180910390fd5b600081141561037c576040517f08c379a000000000000000000000000000000000000000000000000000000000815260040161037390610a7b565b60405180910390fd5b5050565b60006103976003548361043590919063ffffffff16565b9050919050565b600081836103ac9190610aca565b905092915050565b6103be828261044b565b5050565b5050565b600260009054906101000a900473ffffffffffffffffffffffffffffffffffffffff1673ffffffffffffffffffffffffffffffffffffffff166108fc349081150290604051600060405180830381858888f1935050505015801561042e573d6000803e3d6000fd5b50565b5050565b600081836104439190610b20565b905092915050565b6104988282600160009054906101000a900473ffffffffffffffffffffffffffffffffffffffff1673ffffffffffffffffffffffffffffffffffffffff1661049c9092919063ffffffff16565b5050565b61051d8363a9059cbb60e01b84846040516024016104bb929190610b7a565b604051602081830303815290604052907bffffffffffffffffffffffffffffffffffffffffffffffffffffffff19166020820180517bffffffffffffffffffffffffffffffffffffffffffffffffffffffff8381831617835250505050610522565b505050565b6000610584826040518060400160405280602081526020017f5361666545524332303a206c6f772d6c6576656c2063616c6c206661696c65648152508573ffffffffffffffffffffffffffffffffffffffff166105e99092919063ffffffff16565b90506000815111156105e457808060200190518101906105a49190610bdb565b6105e3576040517f08c379a00000000000000000000000000000000000000000000000000000000081526004016105da90610c7a565b60405180910390fd5b5b505050565b60606105f88484600085610601565b90509392505050565b606082471015610646576040517f08c379a000000000000000000000000000000000000000000000000000000000815260040161063d90610d0c565b60405180910390fd5b61064f85610715565b61068e576040517f08c379a000000000000000000000000000000000000000000000000000000000815260040161068590610d78565b60405180910390fd5b6000808673ffffffffffffffffffffffffffffffffffffffff1685876040516106b79190610e12565b60006040518083038185875af1925050503d80600081146106f4576040519150601f19603f3d011682016040523d82523d6000602084013e6106f9565b606091505b5091509150610709828286610728565b92505050949350505050565b600080823b905060008111915050919050565b6060831561073857829050610788565b60008351111561074b5782518084602001fd5b816040517f08c379a000000000000000000000000000000000000000000000000000000000815260040161077f9190610e7e565b60405180910390fd5b9392505050565b600073ffffffffffffffffffffffffffffffffffffffff82169050919050565b6000819050919050565b60006107d46107cf6107ca8461078f565b6107af565b61078f565b9050919050565b60006107e6826107b9565b9050919050565b60006107f8826107db565b9050919050565b610808816107ed565b82525050565b600060208201905061082360008301846107ff565b92915050565b6000819050919050565b61083c81610829565b82525050565b60006020820190506108576000830184610833565b92915050565b60006108688261078f565b9050919050565b6108788161085d565b82525050565b6000602082019050610893600083018461086f565b92915050565b600080fd5b6108a78161085d565b81146108b257600080fd5b50565b6000813590506108c48161089e565b92915050565b6000602082840312156108e0576108df610899565b5b60006108ee848285016108b5565b91505092915050565b600082825260208201905092915050565b7f5265656e7472616e637947756172643a207265656e7472616e742063616c6c00600082015250565b600061093e601f836108f7565b915061094982610908565b602082019050919050565b6000602082019050818103600083015261096d81610931565b9050919050565b60006040820190506109896000830185610833565b6109966020830184610833565b9392505050565b7f43726f776473616c653a2062656e656669636961727920697320746865207a6560008201527f726f206164647265737300000000000000000000000000000000000000000000602082015250565b60006109f9602a836108f7565b9150610a048261099d565b604082019050919050565b60006020820190508181036000830152610a28816109ec565b9050919050565b7f43726f776473616c653a20776569416d6f756e74206973203000000000000000600082015250565b6000610a656019836108f7565b9150610a7082610a2f565b602082019050919050565b60006020820190508181036000830152610a9481610a58565b9050919050565b7f4e487b7100000000000000000000000000000000000000000000000000000000600052601160045260246000fd5b6000610ad582610829565b9150610ae083610829565b9250827fffffffffffffffffffffffffffffffffffffffffffffffffffffffffffffffff03821115610b1557610b14610a9b565b5b828201905092915050565b6000610b2b82610829565b9150610b3683610829565b9250817fffffffffffffffffffffffffffffffffffffffffffffffffffffffffffffffff0483118215151615610b6f57610b6e610a9b565b5b828202905092915050565b6000604082019050610b8f600083018561086f565b610b9c6020830184610833565b9392505050565b60008115159050919050565b610bb881610ba3565b8114610bc357600080fd5b50565b600081519050610bd581610baf565b92915050565b600060208284031215610bf157610bf0610899565b5b6000610bff84828501610bc6565b91505092915050565b7f5361666545524332303a204552433230206f7065726174696f6e20646964206e60008201527f6f74207375636365656400000000000000000000000000000000000000000000602082015250565b6000610c64602a836108f7565b9150610c6f82610c08565b604082019050919050565b60006020820190508181036000830152610c9381610c57565b9050919050565b7f416464726573733a20696e73756666696369656e742062616c616e636520666f60008201527f722063616c6c0000000000000000000000000000000000000000000000000000602082015250565b6000610cf66026836108f7565b9150610d0182610c9a565b604082019050919050565b60006020820190508181036000830152610d2581610ce9565b9050919050565b7f416464726573733a2063616c6c20746f206e6f6e2d636f6e7472616374000000600082015250565b6000610d62601d836108f7565b9150610d6d82610d2c565b602082019050919050565b60006020820190508181036000830152610d9181610d55565b9050919050565b600081519050919050565b600081905092915050565b60005b83811015610dcc578082015181840152602081019050610db1565b83811115610ddb576000848401525b50505050565b6000610dec82610d98565b610df68185610da3565b9350610e06818560208601610dae565b80840191505092915050565b6000610e1e8284610de1565b915081905092915050565b600081519050919050565b6000601f19601f8301169050919050565b6000610e5082610e29565b610e5a81856108f7565b9350610e6a818560208601610dae565b610e7381610e34565b840191505092915050565b60006020820190508181036000830152610e988184610e45565b90509291505056fea26469706673582212207bc3a2a62abca9330031eef5f5577526d54277d19c3763bea11b52264d6ec66664736f6c634300080b0033",
  "immutableReferences": {},
  "source": "// SPDX-License-Identifier: MIT\npragma solidity 0.8.11;\n\nimport \"./Crowdsale.sol\";\n\ncontract MyTokenSale is Crowdsale {\n    constructor(\n        uint256 rate, // rate in TKNbits\n        address payable wallet,\n        IERC20 token\n    ) Crowdsale(rate, wallet, token) {}\n}\n",
  "sourcePath": "/Users/navinalang/Ethereum-Blockchain-Developer-Bootcamp-With-Solidity2022/contracts/MyTokenSale.sol",
  "compiler": {
    "name": "solc",
    "version": "0.8.11+commit.d7f03943.Emscripten.clang"
  },
  "schemaVersion": "3.4.4",
  "updatedAt": "2022-01-08T18:41:39.856Z",
  "networkType": "ethereum",
  "devdoc": {
    "kind": "dev",
    "methods": {
      "buyTokens(address)": {
        "details": "low level token purchase ***DO NOT OVERRIDE*** This function has a non-reentrancy guard, so it shouldn't be called by another `nonReentrant` function.",
        "params": {
          "beneficiary": "Recipient of the token purchase"
        }
      },
      "rateA()": {
        "returns": {
          "_0": "the number of token units a buyer gets per wei."
        }
      },
      "tokenA()": {
        "returns": {
          "_0": "the token being sold."
        }
      },
      "walletA()": {
        "returns": {
          "_0": "the address where funds are collected."
        }
      },
      "weiRaisedA()": {
        "returns": {
          "_0": "the amount of wei raised."
        }
      }
    },
    "version": 1
  },
  "userdoc": {
    "events": {
      "TokensPurchased(address,address,uint256,uint256)": {
        "notice": "Event for token purchase logging"
      }
    },
    "kind": "user",
    "methods": {},
    "version": 1
  }
}